:03000000021615D0
:0C161500787FE4F6D8FD75819E02162D4A
:1000030068656C700000E5B8AEE58AA9E69687E6F8
:10001300A1A300636C65617200E6B885E5B18F004A
:100023007265626F6F7400E9878DE590AF00736549
:1000330074626974003C42616E6B49443E203C50DB
:10004300696E49443E00E8AEBEE7BDAE494FE58F59
:10005300A3E4B8BA3100726573657462697400E928
:10006300878DE7BDAE494FE58FA3E4B8BA3000678B
:10007300657462697400E8AFBBE58F96494FE58FFD
:10008300A3E78AB6E680810020496E76616C6964D5
:1000930020275365744269742720636F6D6D616E09
:1000A300643A20617267756D656E7473206E6F7448
:1000B300206E756D626572210D0A002055736167AC
:1000C300653A0D0A0020202020205365744269748C
:1000D300203120310D0A0020496E76616C6964205D
:1000E300275365744269742720636F6D6D616E6475
:1000F3003A2050333120616E6420503330206973CD
:100103002053657269616C506F7274210D0A00206F
:10011300496E76616C69642027536574426974275C
:1001230020636F6D6D616E643A20746F6F206D6133
:100133006E7920617267756D656E74730D0A0020A8
:100143004578616D706C653A0D0A0020496E7661E1
:100153006C69642027526573657442697427206350
:100163006F6D6D616E643A20617267756D656E7453
:1001730073206E6F74206E756D626572210D0A00B7
:100183002020202020526573657442697420312039
:10019300310D0A0020496E76616C6964202752652F
:1001A3007365744269742720636F6D6D616E643A81
:1001B3002050333120616E64205033302069732026
:1001C30053657269616C506F7274210D0A00204986
:1001D3006E76616C69642027526573657442697435
:1001E3002720636F6D6D616E643A20746F6F206DAD
:1001F300616E7920617267756D656E74730D0A00A7
:1002030020496E76616C696420274765744269747E
:100213002720636F6D6D616E643A20617267756D3F
:10022300656E7473206E6F74206E756D62657220D7
:100233006F72206F7665722037210D0A002020200F
:100243002020476574426974203120310D0A00462D
:10025300616C73650054727565000D0A0020496E68
:1002630076616C696420274765744269742720634B
:100273006F6D6D616E643A20746F6F206D616E797E
:1002830020617267756D656E74730D0A0020001B23
:100293005B33316D001B5B34306D001B5B33326DA0
:1002A30000202D2D20001B5B33336D0020E697A02B
:1002B300E69588E79A84E6938DE4BD9C3A20E58F22
:1002C30082E695B0E8BF87E5A49A0D0A0020E4BE54
:1002D3008BE5AD903A0D0A00202020202068656C44
:1002E300700D0A001B5B324A001B5B480020496EFD
:1002F30076616C69642027636C6561722720636F84
:100303006D6D616E643A20746F6F206D616E79203C
:10031300617267756D656E74730D0A00202020206D
:1003230020636C6561720D0A0020496E76616C6909
:100333006420277265626F6F742720636F6D6D6130
:100343006E643A20746F6F206D616E7920617267FD
:10035300756D656E74730D0A002020202020726570
:10036300626F6F740D0A00FF0003FF0C78FF000833
:10037300FF0009FF0016FF14A6FF0008FF001CFF83
:100383000023FF1548FF0008FF002AFF0031FF107C
:1003930005FF0038FF0049FF0059FF10E3FF003855
:1003A300FF0062FF0072FF11C1FF0038FF007900F8
:0B03B30000000000000000000000003F
:10100500AF4785482B85492C854A2DE4F52EF52FCC
:10101500EF24FD60030210C7AB2BAA2CA92D90006D
:10102500061206321204B424D0F52ED394094008D2
:101035007BFF7A00798B8020AB2BAA2CA92D900001
:10104500031206321204B464337018E52E6003B43B
:1010550001117BFF7A0079DA1215D37BFF7A0079CB
:10106500BE806E7F01A82EEF08800123D8FDF52FE5
:10107500AB2BAA2CA92D9000031206321204B4B48E
:101085003004E52F42801204B4FFB43104E52F4249
:1010950090EFB43204E52F42A0EFB43304E52F42BC
:1010A500B0EFB43404E52F42C0EFB43504E52F4268
:1010B500C8EFB43604E52F42E8EFB43720E52F42F8
:1010C500F8227BFF7A0179121215D37BFF7A017919
:0D10D500421215D37BFF7A0079C81215D3A3
:0110E20022EB
:1010E300AF4785482B85492C854A2DE4F52EF52FEE
:1010F300EF24FD60030211A5AB2BAA2CA92D9000B0
:10110300061206321204B424D0F52ED394094008F3
:101113007BFF7A01794E8020AB2BAA2CA92D90005E
:10112300031206321204B464337018E52E6003B45C
:1011330001117BFF7A0179971215D37BFF7A00792E
:10114300BE806E7FFEA82EEF08800123D8FDF52F09
:10115300AB2BAA2CA92D9000031206321204B4B4AF
:101163003004E52F52801204B4FFB43104E52F524A
:1011730090EFB43204E52F52A0EFB43304E52F52BD
:10118300B0EFB43404E52F52C0EFB43504E52F5269
:10119300C8EFB43604E52F52E8EFB43720E52F52F9
:1011A300F8227BFF7A0179D11215D37BFF7A01797B
:0D11B300421215D37BFF7A0179831215D308
:0111C000220C
:1011C100AF4785482B85492C854A2DE4F52EF52F0F
:1011D100EF24FD600302126FAB2BAA2CA92D900006
:1011E100061206321204B424D0F52ED3940740110E
:1011F1007BFF7A0279031215D37BFF7A0079BE80D7
:101201007CAB2BAA2CA92D9000031206321204B438
:10121100FFB4300385802FEFB4310385902FEFB4F5
:10122100320385A02FEFB4330385B02FEFB434031D
:1012310085C02FEFB4350385C82FEFB4360385E899
:101241002FEFB4370385F82F7F01A82EEF08800117
:1012510023D8FD552F7BFF70067A02795280047ADC
:101261000279581215D37BFF7A02795D80187BFFD2
:101271007A0279601215D37BFF7A0179421215D374
:091281007BFF7A0279401215D3BB
:01128A002241
:100C7800AF4785482B85492C854A2DEF1460030220
:100C88000DA9E4F52EAF2EEF3395E0FE90037375B2
:100C9800F00CEF1205B7EE75F00CA42583F583E48C
:100CA80093FB740193FA7402934A4B7003020DA1EB
:100CB8007BFF7A0279901215D3AF2EEF3395E0FEC1
:100CC80090036A75F00CEF1205B7EE75F00CA425C9
:100CD80083F583E493FB740193FA740293F97537EF
:100CE800FF753802753992753AFF753B02753C9865
:100CF8001215177BFF7A0279901215D3AF2EEF33B6
:100D080095E0FE90037075F00CEF1205B7EE75F0E4
:100D18000CA42583F583E493FB740193FA7402937E
:100D2800F97537FF75380275399E753AFF753B02BC
:100D3800753C981215177537FF7538027539A975FE
:100D48003AFF753B02753C987BFF7A0279A412152D
:100D580017AF2EEF3395E0FE90037375F00CEF128A
:100D680005B7EE75F00CA42583F583E493FB7401B5
:100D780093FA740293F97537FF7538027539A975B6
:100D88003AFF753B02753C981215177BFF7A02797A
:100D98005D1215D3052E020C8D7BFF7A02795D80DA
:100DA800187BFF7A0279AF1215D37BFF7A0279D0CC
:0C0DB8001215D37BFF7A0279DB1215D3F1
:010DC400220C
:1014A600AF4785482B85492C854A2DEF1470117B53
:1014B600FF7A0279E71215D37BFF7A0279EC80185E
:1014C6007BFF7A0279F01215D37BFF7A0079BE1280
:0B14D60015D37BFF7A03791F1215D39A
:0114E10022E8
:10154800AF4785482B85492C854A2DEF1470030237
:1015580000007BFF7A03792C1215D37BFF7A007980
:0D156800BE1215D37BFF7A03795C1215D3F8
:011575002253
:061469008B2B8A2C892D5B
:10146F00AE02AF01EF4E602EE4FFFEAB2BAA2CA90C
:10147F002D8F828E831204CDFD601BC39441400FCC
:10148F00EDD3945A50098F828E8374201204FA0F71
:06149F00BF00010E80D524
:0114A5002224
:0B162D001215B612128B1213E280FBA4
:100F0B001B5B313B33326D001B5B34306D001B5B65
:100F1B00324A001B5B48002A2A2A2A2A2A2A2A2A12
:100F2B002A2A2A2A2A2A2A2A2A2A2A2A2A2A2A2A16
:100F3B002A2A2A2A000D0A001B5B33376D001B5B24
:100F4B0043001B5B0044001B5B73001B5B75004382
:100F5B00000D0A20E8ADA6E5918A3AE682A8E8BE24
:100F6B0093E585A5E79A84E58685E5AEB9E8BF8765
:100F7B00E995BF210D0A0D0A001B5B33316D00276C
:100F8B00002720E4B88DE698AFE58685E983A8E6CF
:100F9B008896E5A496E983A8E591BDE4BBA4EFBCD4
:100FAB008CE4B99FE4B88DE698AFE58FAFE8BF90BE
:100FBB00E8A18CE79A84E7A88BE5BA8F2EE5A68289
:100FCB00E69E9CE99C80E8A681E5B8AEE58AA9E897
:100FDB00AFB7E8BE93E585A5002768656C70270D54
:100FEB000A001B5B33336D003E0000000000000065
:0A0FFB0000000000000000000000EC
:10128B00E4784BF6789EF6784CF67BFF7A0F790B69
:10129B001215D37BFF7A0F79131215D37BFF7A0FBD
:1012AB0079191215D37BFF7A0F791E1215D37E0095
:1012BB007F407D007B007A00795E1206C17E007F45
:1012CB00107D007B007A00794D1206C17BFF7A0FEF
:1012DB0079221216217BFF7A0F79221216217BFFBE
:1012EB007A0F79401215D37537FF75380F7539435F
:1012FB00753AFF753B0F753C137BFF7A0F79F30241
:02130B001517B4
:02072F008F0930
:10073100780A7C007D007BFF7A0F79F57E007F10BF
:1007410012048EE4F51AF51BE50924BF24E6500ACC
:1007510024FA24E6500424FD7004E4784CF6785D14
:10076100E6FFC3648094904007E4F6784CF6800974
:10077100744D2FF8A609785D06784CE660030209EE
:100781009BD3785DE664809480500302099B784D89
:10079100E6645B600302098BD3785DE66480948232
:1007A1005003020852751C00751D01785DE6FBFFC0
:1007B1003395E0FEC3E51D9FEE6480F8E51C64807F
:1007C100984003020852744D251DF8E6FF643B6012
:1007D10004EFB42C0A051BE51B706B051A8067C377
:1007E100EF648094B04041D3EF648094B95039AA4A
:1007F1001BEA25E0240AF8E6FE08E6FF7C007D0AF4
:1008010012053F744D251DF8E6FD3395E0FCED24FE
:10081100D0FDEC34FFCD2FFFED3EFEEA25E0240AAA
:10082100F8A60608A607801EEBFF3395E0FEEF242D
:10083100FFFFEE34FFFEEFB51D0CEEB51C08051BE6
:10084100E51B7002051A051DE51D7002051C020756
:10085100AC785DE6244CF8E624BD602124C5603601
:10086100243A600302098BD3784BE664809480506C
:100871000302098B167F0812163802098B784BE6A2
:10088100245EF9E7700302098B067BFF7A0F794931
:100891001215D302098BE51B6401451A6003020995
:1008A1008BE50B6401450A70247BFF7A0F794D12A9
:1008B10015D3784BE6FF3395E0FE12137C7BFF7A6C
:1008C1000F79501215D3E4784BF602098BE50B64CE
:1008D10003450A706A784BE6245EF9E77003020962
:1008E1008B7BFF7A0F79521215D3784BE6245FF98F
:1008F100E4FAFB1215D37F201216387BFF7A0F79A9
:10090100561215D3784BE6FF3395E0F51C8F1D7B0E
:10091100007A00795E121600C3E51D9FEE6480F82F
:10092100E51C6480985063AF1D745F2FF8E6FE7478
:100931005E2FF8A606051DE51D70D4051C80D0E5C7
:100941000B6404450A7043784BE6245EF9E7603A8C
:100951007BFF7A0F794D1215D37B007A00795E12F5
:100961001600784BE6FD3395E0FCC3EF9DFFEE9C4E
:10097100FE12137C7BFF7A0F795A1215D37B007A12
:1009810000795E121600784BA607E4785DF6FE7FCB
:0A09910010FDFB7A00794D1206C13B
:01099B002239
:02099C008F09C1
:10099E00E4F50AE5097003020A4924FA24FD5025FC
:1009AE007003020B28147003020A4924FD7003021F
:1009BE000A49248F600F14600C24646003020A58E5
:1009CE00784C760122D3784BE664809480500302F3
:1009DE000B28784B167F081216387BFF7A0F795248
:1009EE001215D3784BE6245FF9E4FAFB1215D37F88
:1009FE00201216387BFF7A0F79561215D3784BE6F4
:100A0E00FF3395E0F50B8F0C7B007A00795E1216A2
:100A1E0000C3E50C9FEE6480F8E50B6480984003FC
:100A2E00020B28AF0C745F2FF8E6FE745E2FF8A64B
:100A3E0006050CE50C70D1050B80CD7F0D12163816
:100A4E007F0A121638789E7601227B007A00795E34
:100A5E00121600EF2401FFE43EFEC3EF9440EE6455
:100A6E008094804046E4784BF6FE7F40FDFB7A0092
:100A7E00795E1206C17537FF75380F753984753A70
:100A8E00FF753B0F753C137BFF7A0F795C121517C0
:100A9E007537FF75380F753943753AFF753B0F750E
:100AAE003C137BFF7A0F79F30215177B007A0079DE
:100ABE005E121600EF24FFF50CEE34FFF50B784BAB
:100ACE00E6FFFD3395E0FCC3E50C9DEC6480F8E594
:100ADE000B6480984018AE0C745E2EF8E6FD745FC1
:100AEE002EF8A605E50C150C70D4150B80D0745E8F
:100AFE002FF8A609AF091216387BFF7A0F7952121A
:100B0E0015D3784BE6245FF9E4FAFB1215D37BFF7D
:0A0B1E007A0F79561215D3784B06B2
:010B280022AA
:1015EA00309812859908C298784CE6AF08600302D1
:0515FA00072F12099CFF
:0115FF0022C9
:060DC5008B2B8A2C892D06
:100DCB00E4F537FFAB2BAA2CA92D1204B4FE70034C
:030DDB00020EA461
:100DDE00BE3B0DEF64026008EF64036003020EA4D5
:100DEE00BF0306853839020E94BF0212BE2209E4F3
:100DFE00F53912052D020E94753902020E94EE6429
:100E0E00206003BE0908E412052DF5398078BE2254
:100E1E003E753902AB2B052DE52DAA2C7002052C43
:100E2E0014F9E412052DAB2BAA2CA92DC003C00278
:100E3E00C001AB31AA32A933AE370537EEFD33957B
:100E4E00E08D82F58374031205A61206628037BE0A
:100E5E005C078F38753903802DEF7027AB2BAA2CCA
:100E6E00A92DC003C002C001AB31AA32A933AE37DF
:100E7E000537EEFD3395E08D82F58374031205A6DA
:100E8E00120662753901AF397401252DF52DE43541
:030E9E002CF52C04
:100EA100020DCF7B007A007900C003C002C001AB04
:100EB10031AA32A933AF37EF3395E08F82F58374CE
:100EC100031205A6120662E530452F452E600BABD5
:100ED1002EAA2FA930E53712052DAB2BAA2CA92D4F
:100EE1001204B4B43B0E052DE52D7002052C14F946
:100EF100E412052DAB2BAA2CA92DC003C002C00101
:090F0100AB34AA35A9361205E350
:010F0A0022C4
:060B29008B088A09890A0D
:100B2F00752800752900752A00AB08AA09A90A12B1
:100B3F0004B47003020C777E007F187D007B007A6F
:100B4F0000790C1206C1752E00752F0075300B75CC
:100B5F00310075320075330C7534007535007536FC
:100B6F0024AB08AA09A90A120DC5AB0CAA0DA90E30
:100B7F00121469D3E50B648094805003020C6BE46C
:100B8F00F527AF27EF3395E0FE90036A75F00CEF72
:100B9F001205B7EE75F00CA42583F583E493FB746F
:100BAF000193FA7402934A4B60477C007D0C120547
:100BBF003F746A2FF974033E7528FFF529892AAB14
:100BCF000CAA0DA90E1216008E318F32AB28AA294E
:100BDF00A92A1205C3850C2E850D2F850E301213F1
:100BEF000DEF600D752800752900752A0005278007
:100BFF0091E52A4529704A7BFF7A0F798A1215D31E
:100C0F007537FF75380F753984753AFF753B0F755A
:100C1F003C13AB0CAA0DA90E1215177BFF7A0F7997
:100C2F008C1215D3752EFF752F0F7530ED7531FFA3
:100C3F0075320F7533137BFF7A0F79E41215988095
:100C4F001B850B47754800754900754A0CAB28AAE0
:100C5F0029A92A9000031206321206BB85240885A3
:080C6F00250985260A020B3855
:010C7700225A
:1013E2003098031215EA789EE6603D7B007A007918
:1013F2005E120B297537FF75380F753943753AFF41
:10140200753B0F753C137BFF7A0F79F31215177E2C
:10141200007F407D007B007A00795E1206C1E4788D
:091422004BF6785DF6789EF62287
:101576000D0A001B5B313B33326D001B5B34306D53
:1015860000303132333435363738394142434445F9
:0215960046000D
:081638008F993099FDC299223F
:1015D300E94A60121204B4FF600C12163874012930
:0715E300F9E43AFA80EE2260
:0C1621001215D37BFF7A1579760215D3E1
:101517008B348A358936AB37AA38A9391215D3AB3C
:101527003AAA3BA93C1215D3AB34AA35A9361215F2
:10153700D37BFF7A1579791215D37A15798102153C
:01154700D3D0
:10159800852E37852F3885303985313A85323B8518
:0E15A800333C1215177BFF7A1579760215D3A6
:1014E200EF540FFDFBC3EF9BFFE49400C4F854F0EC
:1014F200C868FEEFC4540F482487F58274153EF580
:1015020083E493FF121638ED90158793FF12163875
:051512007F20021638E5
:0A142B008B408A4189428C438D44B6
:10143500E4F545F546C3E5469544E5436480F8E59E
:1014450045648098501DAB40AA41A94285468285D6
:1014550045831204CDFF1214E20546E54670D60514
:031465004580D2ED
:011468002261
:1015B60053877F759850438E40538EFE53890F4351
:0D15C6008920758BF8758DF8C2ABD28E228E
:04137C008E1E8F1F13
:10138000E4FBFAAE1EAF1F7C007D0A1205517420EB
:101390002BF8A60574202BF8E6FF3395E0FEC3E595
:1013A0001F9FFFE51E9EFE7C007D0A1205518E1ECA
:1013B0008F1F0BBB00010AD3E51F9400E51E9400AC
:1013C00050C1EB1B70011AC3EA6480948040127410
:1013D000202BF8E62430FF121638EB1B70E91A8038
:0113E000E626
:0113E10022E9
:1003BE00E709F608DFFA8046E709F208DFFA803E21
:1003CE0088828C83E709F0A3DFFA8032E309F6080E
:1003DE00DFFA8078E309F208DFFA807088828C8376
:1003EE00E309F0A3DFFA806489828A83E0A3F6082A
:1003FE00DFFA805889828A83E0A3F208DFFA804C04
:10040E0080D280FA80C680D4806980F280338010DA
:10041E0080A680EA809A80A880DA80E280CA803343
:10042E0089828A83ECFAE493A3C8C582C8CCC583BB
:10043E00CCF0A3C8C582C8CCC583CCDFE9DEE7808B
:10044E000D89828A83E493A3F608DFF9ECFAA9F00A
:10045E00EDFB2289828A83ECFAE0A3C8C582C8CC60
:10046E00C583CCF0A3C8C582C8CCC583CCDFEADE79
:10047E00E880DB89828A83E493A3F208DFF980CCDB
:10048E0088F0EF60010E4E60C388F0ED2402B404D4
:10049E000050B9F582EB2402B4040050AF2323457B
:0604AE00822390040E738E
:1004B400BB010689828A83E0225002E722BBFE0246
:0904C400E32289828A83E4932279
:1004CD00BB010CE58229F582E5833AF583E02250E4
:1004DD0006E92582F8E622BBFE06E92582F8E2222E
:0D04ED00E58229F582E5833AF583E4932248
:1004FA00BB010FF8E58229F582E5833AF583E02806
:10050A00F0225009C58229F8E58226F622BBFE09A7
:10051A00C58229F8E22582F222F8EA2583F583E9E1
:03052A00932822F1
:10052D00BB010689828A83F0225002F722BBFE01AD
:02053D00F322A7
:10053F00EF8DF0A4A8F0CF8CF0A428CE8DF0A42ED0
:02054F00FE228A
:10055100BC000BBE0029EF8DF084FFADF022E4CC8E
:10056100F875F008EF2FFFEE33FEEC33FCEE9DEC57
:10057100984005FCEE9DFE0FD5F0E9E4CEFD22ED9D
:10058100F8F5F0EE8420D21CFEADF075F008EF2FE7
:10059100FFED33FD4007985006D5F0F222C398FDD8
:0505A1000FD5F0EA2275
:1005A600F5F0C582A4C582C5F0C583A42583F5836D
:0105B6002222
:0C05B700A42582F582E5F03583F583224F
:1005C300BB010789828A830206FF5005E9F8020608
:1005D300EDBBFE05E9F802071189828A830207232E
:1005E300BB011A89828A83D0F0D0E0F8D0E0F9D039
:1005F300E0FAD0E0FBE8C0E0C0F00207085016E9DB
:10060300F8D083D082D0E0F9D0E0FAD0E0FBC0820A
:10061300C0830206F6BBFE16E9F8D083D082D0E091
:0F062300F9D0E0FAD0E0FBC082C08302071A22B0
:10063200BB010DE58229F582E5833AF5830206FFC7
:100642005007E92582F80206EDBBFE07E92582F88C
:10065200020711E58229F582E5833AF58302072331
:10066200BB0120E58229F582E5833AF583D0F0D0FB
:10067200E0F8D0E0F9D0E0FAD0E0FBE8C0E0C0F06A
:100682000207085018E92582F8D083D082D0E0F919
:10069200D0E0FAD0E0FBC082C0830206F6BBFE18AF
:1006A200E92582F8D083D082D0E0F9D0E0FAD0E018
:0906B200FBC082C08302071A227A
:0606BB008A838982E473CA
:10130D008B2B8A2C892DAB2EAA2FA9301204B4FE5B
:10131D00AB2BAA2CA92D1204B4FF6E702BEF600D10
:10132D00E53215327002153114453170037F0022FC
:10133D007401252DF52DE4352CF52C74012530F592
:10134D0030E4352FF52F80BEAB2BAA2CA92D12041E
:10135D00B4FDD3EE6480F8ED64809840037F0122E4
:0F136D00AB2EAA2FA9301204B4FFC3ED9FFF22AD
:10160000E4FFFE1204B4600C0FEF70010E09E970E4
:05161000F20A80EF2248
:1006C100EF4E6012EF60010EEDBB010B89828A8350
:1006D100F0A3DFFCDEFA2289F05007F709DFFCA95D
:0C06E100F022BBFEFCF309DFFCA9F022B4
:0906ED00E6FB08E6FA08E6F92232
:0906F600EBF608EAF608E9F62229
:0906FF00E0FBA3E0FAA3E0F922FC
:09070800EBF0A3EAF0A3E9F022F2
:09071100E2FB08E2FA08E2F92219
:09071A00EBF208EAF208E9F22210
:0C072300E493FB740193FA740293F92232
:00000001FF
